:100000004BC1000068C1000066C1000064C100006F
:1000100062C1000060C100005EC100005CC1000060
:100020005AC1000058C1000056C1000054C1000070
:1000300052C1000050C100004EC100004CC1000080
:100040004AC1000048C1000046C1000044C1000090
:1000500042C1000040C100003EC100003CC10000A0
:100060003AC1000038C1000036C1000034C10000B0
:1000700032C1000030C100002EC100002CC10000C0
:100080002AC1000028C1000026C1000024C10000D0
:1000900022C1000020C100001EC100001CC10000E0
:1000A0001AC1000018C1000016C1000014C10000F0
:1000B00012C1000010C100000EC100000CC1000000
:1000C0000AC1000008C1000006C1000004C1000010
:1000D00002C1000000C10000FEC00000FCC0000022
:1000E000FAC00000F8C00000F6C00000F4C0000034
:1000F000F2C00000F0C00000EEC00000ECC0000044
:10010000EAC00000E8C00000E6C00000E4C0000053
:10011000E2C00000E0C00000DEC00000DCC0000063
:10012000DAC00000D8C00000D6C00000D4C0000073
:10013000D2C00000D0C00000CEC00000CCC0000083
:10014000CAC00000C8C00000C6C00000C4C0000093
:10015000C2C00000C0C00000BEC00000BCC00000A3
:10016000BAC00000B8C00000B6C00000B4C00000B3
:10017000B2C00000B0C00000AEC00000ACC00000C3
:10018000AAC00000A8C00000A6C00000A4C00000D3
:10019000A2C00000A0C000009EC000009CC00000E3
:1001A0009AC0000098C0000096C0000094C00000F3
:1001B00092C0000090C000008EC000008CC0000003
:1001C0008AC0000088C0000086C0000084C0000013
:1001D00082C0000080C000007EC000007CC0000023
:1001E0007AC0000078C0000076C0000074C0000033
:1001F00072C0000040C60000BCC6000015062A06FA
:1002000026072A0626073A065E062607BD06D106F9
:100210002A0710071E0343004E004300200043003E
:100220006F006E00740072006F006C006C0065005F
:10023000720000000E0377006F006F006400790009
:100240006D0000000403090409023E00020100C021
:10025000320904000001020201000524001001041B
:100260002402060524060001070582030800FF0991
:10027000040100020A000000070504024000010713
:100280000583024000011201100102000040EB034F
:100290004B2001000102DC0111241FBECFEFCDBFB6
:1002A000DFE3DEBF00E00CBF11E2A0E0B0E2ECEE65
:1002B000FFE000E00BBF02C007900D92A232B10731
:1002C000D9F723E2A2E2B1E201C01D92AC3AB20733
:1002D000E1F78ED089C694CE292F332722303105FD
:1002E00059F02330310569F02130310529F180E0E2
:1002F00090E020E030E029C08EE390E028E432E096
:1003000024C099278130910559F08230910571F010
:10031000892BB9F4E4E4F2E0849190E09F0115C0E8
:10032000E4E3F2E0849190E09F010FC0E4E1F2E0A9
:10033000849190E09F0109C082E190E026E832E0DC
:1003400004C080E090E020E030E0FA0120833183B7
:10035000089582E0E0ECF1E08287ECE1F0E0849146
:100360001092CA01E0E5F0E094E09683A0E6B0E0E8
:1003700013968C9313978BE115968C93159787EBB7
:1003800016968C93169781E08C9388ED84BF83E05A
:100390008083818181FFFDCFE0E5F0E080E185830E
:1003A00088ED84BF83E18083818184FFFDCF81E07C
:1003B0008093680088ED84BF84E0809340000895B6
:1003C000E0E4F0E01182E0E7F0E088E1808385E09E
:1003D0008183828380E683838CE6848388E78583B8
:1003E00087E0E0EAF0E08283B4DFC1D0789408953A
:1003F000E7DF81E0809366221092652210926422EA
:10040000109229231092282310922723C6E6D2E2C5
:1004100004E612E20F2EF5E6CF2EF2E2DF2EF02DEB
:100420000F2EF7E2EF2EF3E2FF2EF02D0F2EF9E262
:10043000AF2EF3E2BF2EF02D0F2EF8E28F2EF3E257
:100440009F2EF02D7724739489E091E274D282E19B
:1004500091E2EED280E091E2EBD288818111F4CF7B
:10046000F8018081F601908189130CC0F50180812B
:100470008111EACFF7018081F4018083F501708258
:100480007882E2CFF7019081E92FF0E0E951FD4D4C
:10049000A82FB0E0AC5DBD4D2C9120838F5FF8019B
:1004A00080839F5FF7019083CFCFFC018091222151
:1004B000882341F1809122218823A4F081EA80835E
:1004C00080E28183128213821482158282E090E09E
:1004D000868397838091222180688093222188E0FF
:1004E00090E0089580912221813829F483E090E002
:1004F0008083918302C0108211821092222182E0B7
:1005000090E0089580E090E00895CF93C62F209169
:100510006622222379F0462F572FBC0184E292E213
:100520005AD5C0936522109264221092662281E00F
:1005300090E002C080E090E0CF910895CF93DF93E8
:1005400020912923222371F0C8E2D3E2488150E0B0
:1005500067EE72E240D5888190E0109227231092D6
:10056000292302C080E090E0DF91CF91089510929E
:100570006622109265221092642210922923109212
:1005800028231092272382E191E2A7D089E091E20B
:10059000A4D080E091E2A1D0E0ECF4E083E4808795
:1005A00083E08187EEC2089580E0089582E191E2C0
:1005B000D0D089E091E2CDD080E091E2CAC0089528
:1005C000089508950895662361F020912321203233
:1005D00041F427E0FC01ABE1B1E201900D922A95D4
:1005E000E1F708950F93FC012181213259F018F4AD
:1005F000203241F167C0223209F43CC0233209F4B1
:100600004DC060C0FC018081813A09F05DC087E087
:10061000EBE1F1E2AAE2B3E201900D928A95E1F7F3
:100620008AE293E280930C2090930D2087E090E083
:1006300080930A2090930B20E8E0F0E202E2069318
:1006400081E049C0FC018081813209F03FC080E235
:10065000809323218AE293E280930C2090930D20D3
:1006600010920A2010920B20E8E0F0E202E20693DA
:1006700081E031C0FC018081813251F58AE293E250
:1006800080930C2090930D2010920A2010920B2042
:10069000E8E0F0E202E2069381E01DC0FC01808107
:1006A0008132C1F48AE293E280930C2090930D2072
:1006B00010920A2010920B20E8E0F0E202E206938A
:1006C00081E009C080E007C080E005C080E003C091
:1006D00080E001C080E00F910895FC01A081A6FF99
:1006E0001EC0AF708381948120E1A29FD0011124AC
:1006F000A050B04E1C968D939C931D9740814F70D7
:100700002381348185819681820F931F20E1429F4E
:10071000F0011124E050F04E848395830895AA23BC
:1007200064F4AF708381948120E1A29FF0011124D1
:10073000E050F04E848795870895AF70838194814F
:1007400020E1A29FF0011124E050F04E84839583B4
:100750000895CF93DF93EC01C0DF1A828881E82FE0
:10076000EF7030E1E39FF0011124DF01A85FBF4D7E
:10077000E050F04E86FF77C08823E4F511961C9276
:10078000119712961D921C92139786E08C932981E3
:100790008D819E8189309105A8F081319105A0F06D
:1007A0008132910598F08134910590F0813891055E
:1007B00088F0813031E0930778F08130924070F416
:1007C00096E00DC090E00BC091E009C092E007C038
:1007D00093E005C094E003C095E001C097E0822F4C
:1007E0008061892B11968C9312821382118282E090
:1007F00080839EC0118212821382108229818D8192
:100800009E8189309105A8F081319105A0F0813257
:10081000910598F08134910590F08138910588F028
:10082000813031E0930778F08130924070F496E0A7
:100830000DC090E00BC091E009C092E007C093E0CA
:1008400005C094E003C095E001C097E0822F80616D
:10085000892B818312961D921C92139711961C92DC
:1008600011971C9265C08823ACF511961C921197C4
:1008700012961D921C92139786E08C9329818D818C
:100880009E8189309105A8F081319105A0F08132D7
:10089000910598F08134910590F08138910588F0A8
:1008A000813031E0930778F08130924070F486E037
:1008B0000DC080E00BC081E009C082E007C083E08A
:1008C00005C084E003C085E001C087E0822B11965B
:1008D0008C932EC0118212821382108229818D8105
:1008E0009E8189309105A8F081319105A0F0813277
:1008F000910598F08134910590F08138910588F048
:10090000813031E0930778F08130924070F486E0D6
:100910000DC080E00BC081E009C082E007C083E029
:1009200005C084E003C085E001C087E0822B81839D
:10093000DF91CF910895DF92EF92FF920F931F9373
:10094000CF93DF93EC012881022F0F7010E0C801D4
:1009500082959295907F9827807F9827AC01405090
:10096000504E7A0126FF43C08A8181111CC0FA01D2
:10097000808185FF55C01FB7F894FA0162817381A9
:1009800084819581EF81F8851995892B51F08D81AE
:100990009E810197F7018283938302E6069381E0AB
:1009A0008A831FBF3DC0FA01808184FF39C0029550
:1009B0001295107F1027007F1027085F1F4DDFB6AC
:1009C000F894F8016281738184819581EF81F885C3
:1009D0001995892B51F08D819E810197F8018283B1
:1009E0009383F70104E506931A82DFBE19C0FA016A
:1009F000808185FF15C01FB7F894FA016281738169
:100A000084819581EF81F8851995892B41F08D813D
:100A10009E81F7018283938302E606931A821FBFA9
:100A2000DF91CF911F910F91FF90EF90DF9008958C
:100A3000DF92EF92FF920F931F93CF93DF937C018E
:100A4000DC018C91082F0F7010E0E801C295D2955F
:100A5000D07FDC27C07FDC27C85FDF4D86FF4AC020
:100A600012968C91882349F1888182FF5CC002959F
:100A70001295107F1027007F10270050104EDFB610
:100A8000F894F80184819581D70115966D917C9138
:100A90001697615071091796ED91FC911897199569
:100AA000009749F0F80182839383FE0104E10693E5
:100AB000D70112961C92DFBE36C0888181FF33C0F9
:100AC0001FB7F8948C819D81F70165817681615013
:100AD00071090780F085E02D1995009749F08A8308
:100AE0009B83FE0102E2069381E0D70112968C936C
:100AF0001FBF19C0888181FF16C01FB7F8948C8171
:100B00009D81F701658176810780F085E02D19953B
:100B1000009741F08A839B83FE0102E20693D7018E
:100B200012961C921FBFDF91CF911F910F91FF90E2
:100B3000EF90DF90089583E0E0E4F0E08483A0E0AC
:100B4000B0E2E0ECF4E0A683B78313821C9223E4C6
:100B5000209301208AE693E280930420909305205D
:100B600082E080930820209309208AE293E2809318
:100B70000C2090930D208FEC808381818160818394
:100B8000089582E0E0ECF1E08287EAE1F0E0E491B0
:100B9000A0ECB4E0DA96EC93DA971092CA01E0EC9C
:100BA000F1E08287EBE1F0E0E491DB96EC931092C8
:100BB000CA01C1CF08950F93E0ECF1E012866115F0
:100BC000710561F0AAE2B3E29C01260F371FFC0118
:100BD00084918D933196E217F307D1F78AE293E27D
:100BE00080930C2090930D2060930A2070930B202B
:100BF000E8E0F0E202E206930F9108950F93CF939D
:100C0000DF931F921F92CDB7DEB780916A23807663
:100C100009F01CC180916B2390E08C30910508F0A5
:100C200015C1FC01E250FF4FD0C1EAE2F3E21082AD
:100C300010922B23E0930C20F0930D2082E090E0A3
:100C400080930A2090930B20E8E0F0E202E2069302
:100C500081E001C18AE293E280930C2090930D2001
:100C600010920A2010920B20E8E0F0E202E20693D4
:100C700081E0F1C020916C232F77E0E0F0E202E701
:100C800006938AE293E280930C2090930D201092B9
:100C90000A2010920B20E8E0F0E202E20693808145
:100CA00085FFFDCFE0ECF4E02383222311F083E005
:100CB00001C082E08093AA2381E0CDC0E0ECF1E0A6
:100CC000128680916C2390916D238C3D23E09207D6
:100CD00009F03BC083E080932B238AE380932A238F
:100CE000ACE2B3E240E058E020EC31E062E08AECB4
:100CF00091E0F9016287E52FF0E07491FC01108228
:100D000040FF03C072957F705F5FE72FEF70EA309E
:100D100018F0F0E0F79602C0F0E0F096ED93FD9346
:100D20004F5F4C3131F78AE293E280930C2090932D
:100D30000D208AE390E080930A2090930B20E8E056
:100D4000F0E202E2069381E086C0AE014F5F5F4FA2
:100D500060916E23C1DA009771F020917023309179
:100D60007123BC012817390708F4B90189819A81D8
:100D700022DF81E070C080E06EC08091AB23EAE2A8
:100D8000F3E28083E0930C20F0930D2081E090E06B
:100D900080930A2090930B20E8E0F0E202E20693B1
:100DA0005AC0AE014F5F5F4F60E080E091E094DA9F
:100DB000882391F1E0ECF1E01286E981FA817196E5
:100DC000E49120916C23E21748F18AE293E2809348
:100DD0000C2090930D2010920A2010920B20E8E036
:100DE000F0E202E206932093AB238091AB238823A9
:100DF00021F084E08093AA230AC0E0ECF4E0838130
:100E0000882311F084E001C081E08093AA238091BF
:100E1000AB23CCDB81E01FC080E01DC080E01BC0A5
:100E200060916C2380916E23BFDB8823A1F02AE2BE
:100E300033E220930C2030930D2010920A20109260
:100E40000B20E8E0F0E202E2069305C08AE693E2B6
:100E5000C9DB01C080E00F900F90DF91CF910F911F
:100E60000895E0ECF4E0828180FF04C082818E7FEF
:100E7000828387CE08951F920F920FB60F9211248E
:100E80000BB60F922F933F934F935F936F937F9384
:100E90008F939F93AF93BF93EF93FF93E0ECF4E0B6
:100EA000828588231CF480E882872AC0E0ECF4E085
:100EB00082858E7019F08EE0828722C0E0ECF4E02B
:100EC000828580FF03C081E082871AC0E0ECF4E0F5
:100ED000828586FD75DBE0ECF4E0828585FD71DBC3
:100EE000E0ECF4E0828584FF06C0138282E0809308
:100EF000AA2321DE67DB80E7E0ECF4E08287B1DF44
:100F0000FF91EF91BF91AF919F918F917F916F91E1
:100F10005F914F913F912F910F900BBE0F900FBE9D
:100F20000F901F9018950F938091002084FF12C09E
:100F300065DE81110AC0E1E0F0E280818460808397
:100F4000E9E0F0E2808184608083E0E0F0E202E7A3
:100F500006930DC085FF0BC06091022070910320A5
:100F60008AE693E230DBE0E0F0E202E706930F91DD
:100F700008951F920F920FB60F9211240BB60F9285
:100F80002F933F934F935F936F937F938F939F9391
:100F9000AF93BF93EF93FF93E0ECF4E0148283E010
:100FA0008487C1DFFF91EF91BF91AF919F918F91A6
:100FB0007F916F915F914F913F912F910F900BBE59
:100FC0000F900FBE0F901F901895EE0FFF1F05900A
:100FD000F491E02D1994FB01DC0102C001900D9207
:0C0FE00041505040D8F70895F894FFCF1E
:100FEC0000000000000000000000000000000000F5
:100FFC0000000000000000000000000000000000E5
:10100C0000000000000000000000000000000000D4
:10101C0000000000000000000000000000000000C4
:10102C0000000000000000000000000000000000B4
:10103C0000000000000000000000000000000000A4
:10104C000000000000000000000000000000000094
:10105C000000000000000000000000000000000084
:10106C000000000000000000000000000000000074
:10107C000000000000000000000000000000000064
:10108C000000000000000000000000000000000054
:10109C000000000000000000000000000000000044
:1010AC000000000000000000000000000000000034
:1010BC000000000000000000000000000000000024
:1010CC000000000000000000000000000000000014
:1010DC000000000000000000000000000000000004
:1010EC00C28000672240005502448000A4214000C9
:1010FC008502C38000242140009E02802500000050
:02110C000008D9
:00000001FF
